:020000040800F2
:10000000D8150020D5000008DD000008DF0000083A
:1000100000000000000000000000000000000000E0
:10002000000000000000000000000000E1000008E7
:100030000000000000000000E3000008C1410008CB
:10004000E7000008E7000008E7000008E7000008F4
:10005000E7000008E7000008E7000008E7000008E4
:10006000E7000008810B0008910B0008E70000087A
:10007000E7000008E7000008E7000008E7000008C4
:10008000E7000008E7000008E700000800000000A3
:10009000E7000008E7000008E7000008E7000008A4
:1000A000E7000008E7000008E7000008E700000894
:1000B000E7000008E70000080000000015530008F2
:1000C0000348854600F050FB004800479D58000853
:1000D000D81500200448804704480047FEE7FEE7A3
:1000E000FEE7FEE7FEE7FEE775420008C1000008F4
:1000F00030B50B46014600202022012409E00D46C0
:10010000D5409D4205D31D469540491B2546954047
:1001100040191546521E002DF1DC30BD70B5194C4A
:1001200000683C21FFF7E4FF21603C21FFF7E0FF7E
:1001300061601821FFF7DCFF0546A1600721001D63
:10014000FFF7D6FFA1611048A90008180F49FFF773
:10015000CFFF443060618808E0613B2803D3217DF4
:10016000890700D0401C0021094B0A462161995C97
:10017000814203D8401A521C2261F8E7401CE0601B
:10018000204670BD8C1000206C0B0000B5050000EF
:10019000745B0008F0B52A4C2A4B87B000218269B5
:1001A0005500521952189A5C2270491C641C03298C
:1001B000F5DB2021234B217000211533641C0269DB
:1001C0005500521952189A5C2270491C641C03296C
:1001D000F5DBC16800918168019141680291016875
:1001E000039140691A4918A640186F46049016E01A
:1001F00020707078641C761C002801D0022500E075
:100200000425059501CF04E00A2100F0D5F930312D
:10021000615529466D1E0029F6DC059824183078B2
:100220000028E5D10A202070002060700448017A7F
:10023000302901D120210172014807B0F0BD000032
:10024000B8100020805B000820203A3A200000000F
:100250006C07000003460B439B0703D009E008C965
:10026000121F08C0042AFAD203E00B780370401C66
:10027000491C521EF9D27047D2B201E00270401CF4
:10028000491EFBD270470022F6E710B513460A4616
:1002900004461946FFF7F0FF204610BD421C0178C6
:1002A000401C0029FBD1801A704730B5044600205D
:1002B000034600E05B1C934203D2E05CCD5C401B34
:1002C000F8D030BDF0B507460846584087B0C00F9B
:1002D000049048000E46590040084908BC1A88415D
:1002E00005D2384631461E4617460B460246580090
:1002F000400810434CD0300D039040055900400D8C
:10030000490D0590401A0290402872DA1803012125
:10031000000B09050843019004980092002805D0BD
:100320000199524200208841009201900298402198
:100330000A1A0199009800F083F905460C466B46AD
:1003400007CB00F09EF9C0197141039A0E0D0023EE
:10035000D71756401A467A40164344D0049A002ACA
:100360002DD0029A012A039A15DC1205C01A914178
:1003700001263605001C7141D20F059ED20700935D
:10038000019202962A46234600F09BF907B0F0BD81
:1003900038463146FAE71605224A0F46B218C01A07
:1003A000B74101210905001C4F4100187F4111464A
:1003B00018187941E20F10436D19644113E0E20708
:1003C0006D0815436408C2071443039A01261205F9
:1003D000C01A91413605001C7141CE0740083043D8
:1003E0004908C01851412A46234600F05DF9CDE77F
:1003F000FFE7049801224000C117121A00238B4125
:1004000004983146C417381AA141EEE730B40124EC
:10041000E407634030BC55E730B40124E407614091
:1004200030BC4FE70000E0FFF0B50C465C4085B003
:10043000E40FE40703944C00002664085900944636
:10044000490802460296224321D062460A431ED042
:100450006200570D4A000E032303550D0124024686
:100460002C492405781B1B0B360B401823432643CD
:10047000614600901C46501AB44103D30098401CBA
:10048000009002E0921800985B41002803DA0020F7
:10049000014605B0F0BD002001210905074686464A
:1004A00011E064461D46141BB54106D36546521B38
:1004B000B341744607430C43A646CD07400849089C
:1004C000284392185B4105460D43EAD11046184374
:1004D00013D06046194650407140084306D060462C
:1004E000101AB34106D20122002306E000220123A4
:1004F000DB0702E00122D243531000987446010545
:10050000381C6141029C039D0019694100F0CCF840
:10051000BFE70000FD03000070B54B005B0803431C
:100520000BD04B005C0D002633466542B341D41717
:10053000AD1AA34102DB0020014670BD1205301840
:10054000514170BD0EB505490291002100910A4646
:100550000B46019100F0B5F803B000BD3304000074
:100560000EB5054A0292002200921346019200F055
:10057000A8F803B000BD0000330400004A000903DE
:100580000123090B1B051943094B10B5520D9A4263
:1005900001DA002010BD064B34339A4203DC9A1A6C
:1005A00000F05EF810BD03495118884010BD0000EE
:1005B000FF030000CDFBFFFF70B500242546002897
:1005C00001DA01244042002901DA01254942FFF7FE
:1005D0008FFDAC4200D04042002C00D0494270BD9B
:1005E000F0B51FB40646002082B0054640240191B4
:1005F00000901BE0019922460F46304600F030F88B
:10060000049A059B801A994110D310461946224638
:1006100000F016F8361A8F4101972246012000217A
:10062000009F00F00DF838184D4100902046641EE0
:100630000028DFDC019B00982946324607B0F0BD58
:1006400010B5202A04DB0146203A9140002010BD5D
:10065000914020239C1A0346E3401943904010BD6B
:1006600010B5202A04DB0846203AD040002110BDF6
:100670000B46D340D0402024A21A9140084319468B
:1006800010BD10B5202A06DBCB170846203A1041D2
:10069000C1170B4306E00B461341D0402024A21A99
:1006A00091400843194610BD10B5002B08DA00240C
:1006B000401C614192185B411A4301D1400840003F
:1006C00010BDF0B51FB482B005460C0003D008463B
:1006D00004F05AFE02E004F057FE2030024600907B
:1006E00021462846FFF7ACFF049B059A04460F46B7
:1006F00018431143084314D0184610431BD00098E8
:1007000040210A1A18460599FFF7AAFF05460E462A
:10071000009A05990498FFF793FF084305D001203C
:1007200004E02046394607B0F0BD0020C11705435C
:100730000E432C43374300990E986305401A790500
:10074000E40A00220C43FD0A0A3002D500200146CB
:10075000E9E70105101969410C9C0D9D00196941DB
:10076000FFF7A2FFDFE70000064C0125064E05E07B
:10077000E36807CC2B430C3C98471034B442F7D3C2
:10078000FFF7A2FCB45D0008D45D000810B5806AD4
:10079000042229210A5401F0CCF810BD10B5806A5A
:1007A00001680A680123DB029A430A6001F0C5F878
:1007B00010BD10B5806A01680A6801231B039A43C3
:1007C0000A6001680A6880231A430A6001680A689F
:1007D000520852000A60012229210A5401F048F906
:1007E00010BDFFB583B0054600260C460C9F009354
:1007F0003CE029682068886029686068886029680A
:10080000A06888602968E0688860103401F0BEFD47
:10081000019011E0781C0FD0002F05D001F0B6FD3B
:100820000199401AB84207D9032020356872002088
:100830002872032007B0F0BD28684068C007E9D0DF
:10084000296808688022104308602868C1680098F9
:10085000016029680098C96841602968C968816099
:100860002968C968C160103010360090059886422A
:10087000BFD30020DEE7000070B51E460446236AA1
:100880001148D862236A11485863656A104BEB62BD
:10089000636A9508586322682B460832206A01F083
:1008A00097FB21682B4632460C31606A01F090FBC1
:1008B000206801680322D2021143016020680168A8
:1008C00001221143016070BD9D0700088D070008DB
:1008D000B30700080A68036812BADA624A68036854
:1008E00012BA9A628A68036812BA5A62C9680068C2
:1008F00009BA016270470A68036812BADA614A6885
:10090000036812BA9A618A68036812BA5A61C968A0
:10091000006809BA0161704710B50446FF30FF3026
:10092000023080690122920282181378022B07D0CC
:10093000032B05D0052B03D0062B01D0092B0AD1A0
:1009400002201070002353709370D3701371507194
:1009500093719360D3600748407DC00606D520465A
:1009600004F0C4FC204604F0B3FB10BD488801F03D
:100970006BFB10BD4401002070B54322D20043231D
:100980001458DB0001221B589202CD889B181A785C
:10099000002D11D0022A01D0052A0AD14A889A6076
:1009A000CA880321DA6019705971214603F0E9FE03
:1009B00070BD03F0DCFE70BD052A01D0022AF8D11B
:1009C0000120D8710621197000209870D870187114
:1009D000597170BD70B5C21DFF320546FA32012053
:1009E0009469800221180B7800201F4E032B02D03F
:1009F000062B33D11DE0CB68002B18D004230B70DD
:100A00008870C87008714B718868002802D12078FE
:100A1000412806D00869D169A2198B69012198473C
:100A20001CE00869D169A2198B690021F7E705224A
:100A30000FE0CA79012A02D0002A05D00EE0072271
:100A40000A7001238B7006E0084A127D520705D513
:100A500002220A708870C87008714A710622A119B2
:100A6000284603F0AAFE70BD0104000044010020E6
:100A700010B5C41DFF34FA340123A1699B02C918C3
:100A80000022104BCA711B7D5B0706D5062008703B
:100A90008A70CA700A71487110BD08230B708A7081
:100AA000CA700A714B7104F021FCE06980688047CC
:100AB000BFF34F8F05490448C860BFF34F8F00BF95
:100AC000FDE70000440100200400FA0500ED00E00D
:100AD000F8B5C71DFF370E46FA370123B969054639
:100AE000F2889B020020CC18002A40D02278022AEB
:100AF00004D0092A02D0E060A06033E07388A360CC
:100B0000F288E260002B16D0012B25D90926267029
:100B1000A070E07020719802184B6671C0182369AC
:100B2000C018FB695B6998470146A08982B22846D4
:100B300003F043FEF8BD032A01D9022200E0092296
:100B40002270A070E07020716271087021204870DE
:100B5000412088700322EAE70F212170A070E07025
:100B6000207161713146284603F001FEF8BD022173
:100B70002170A070E07020716171F8BD00F8FFFF76
:100B800010B50248006A01F05FF810BDEC020020C9
:100B900010B50248406A01F057F810BDEC02002081
:100BA00010B5046863608368102B036803D09960F4
:100BB0000068C26010BD9A600068C16010BD00008E
:100BC000F0B587B0002602AF05962F4C029603962B
:100BD000049601970096A068334682682B4901204D
:100BE00000F056F805004BD1A168102202A8403150
:100BF000FFF75BFB002842D1606810220021F03033
:100C000000F0C6F8002810D160681022FF21F030F3
:100C100000F0BEF8002808D16068A1681022F0300A
:100C20004031FFF742FB002829D1606810220021E3
:100C3000E03000F0ADF8002807D160681022FF21F5
:100C4000E03000F0A5F8002806D0002370220197BC
:100C500000960120A16806E0019700966368702263
:100C60000120E033A16800F013F8050008D1A06866
:100C7000102202A97030FFF718FB002800D00125D0
:100C8000284607B0F0BD0000C8010020008200081F
:100C9000FFB58BB00020159E149C0190029003902C
:100CA00004901F46154605900690079008900990FD
:100CB000002A01D0280701D0012762E0324800F065
:100CC0001EFE31483149016004214160002F00D1EE
:100CD00005AF8760002C01D0214600E001A9044641
:100CE000C160294800F02AFE07004AD1102D09D022
:100CF0000B9800281CD0AAB209AB23480C9900F02D
:100D0000C0FD1BE00020C0430B990090002906D0D5
:100D1000102233461C480C9900F069FD05E01022B2
:100D2000334619480C9900F0D5FC070029D11CE086
:100D3000AAB209AB14480C9900F016FD070020D1A7
:100D4000114800F0F7FD0128FAD12068006A00BAC6
:100D5000F0602068406A00BAB0602068806A00BA1B
:100D600070602068C06A00BA306021680020C861E5
:100D7000216888612168486121680861024800F0A3
:100D8000BEFD38460FB0F0BDEC020020006002400E
:100D900010B5002305E0C45C8C4201D0002010BDDA
:100DA0005B1C9342F7D3012010BD0000F0B5414C0D
:100DB000414A63680020196887B0914277D1216861
:100DC0000027083110220120D03300970191FFF74E
:100DD0005FFF00286BD1216800971831019163688B
:100DE00010220120E033FFF753FF00285FD1A168F4
:100DF000324B0A689A425AD140316CC92068103986
:100E000028306CC0303000970190636810220120B8
:100E1000D033FFF73DFF002849D120680097783094
:100E20000190A1686368102201205031E033FFF780
:100E30002FFF00283BD102A801900097A1686368AA
:100E4000102201204031E033FFF722FF00282ED18D
:100E50002068009788300190A16802AB1022002022
:100E60006031FFF715FF002821D1216810220B46C1
:100E700038310120683300970191FFF709FF0028FE
:100E800015D1216810220B46483101207833009794
:100E90000191FFF7FDFE002809D1216810220B46C1
:100EA00058310120883300970191FFF7F1FE07B018
:100EB000F0BD0000C8010020444943454441505062
:100EC0007CB505462F4904F02DFA2F4C2F49A06818
:100ED000006888424DD1010E02020191120E0104F8
:100EE00000920B0EC2B22AA1284604F01BFAA06899
:100EF0002EA18268284604F015FAA06830A1406847
:100F000083B2020C284604F00DFAA0680C30FFF7FB
:100F100005F9FFF73FF902462FA1284604F002FA2F
:100F2000A26832A12846103204F0FCF9A26834A16C
:100F30002846283204F0F6F9A268102335A1284685
:100F4000403200F00DFAA268102337A12846503233
:100F500000F006FAA268102338A12846603200F09B
:100F6000FFF9A26810233AA12846703200F0F8F980
:100F700002E03CA004F0E4F94149284604F0D2F92B
:100F80007CBD00004C5C0008C8010020444150506A
:100F90002020202020202020205461673A20256333
:100FA0002563256325630D0A000000002020202012
:100FB0002020202053697A653A2025640D0A00001C
:100FC000202020202056657273696F6E3A202564B8
:100FD0002E25640D0A000000202020202020202043
:100FE000446174653A2025730D0000002020202004
:100FF000202020204E616D653A2025730D0A0000E7
:101000004D616E7566616374757265723A20257301
:101010000D0A00002020202020207374726F6E675C
:101020004E616D65000000006D616E7566616374F0
:101030007572657253616C74000000002020206599
:101040006E634F70657261746F72496400000000D6
:10105000202020617574686F72697A6174696F6E9F
:10106000000000004150504C49434154494F4E202C
:10107000554E495449414C495A4544210D0A0000F6
:10108000245D00087CB5424C054620684068002875
:1010900001D0404977E04049284604F043F96068B0
:1010A0003E49006888426AD1010E02020191120E87
:1010B000010400920B0EC2B239A1284604F032F9A5
:1010C00060683EA14268284604F02CF9606841A19E
:1010D000806883B2020C284604F024F960680C3062
:1010E000FFF71CF8FFF756F8024640A1284604F027
:1010F00019F9626842A12846103204F013F96268B7
:1011000045A12846303204F00DF9626848A128460E
:10111000503204F007F962684BA12846703204F09F
:1011200001F9606810220021E030FFF731FE00284D
:1011300007D160681022FF21E030FFF729FE002868
:101140000CD047A1284604F0EDF860681022002179
:10115000F030FFF71DFE002802D009E047A1F1E7BB
:1011600060681022FF21F030FFF712FE002804D043
:1011700049A1284604F0D6F804E04EA1F9E754A0AE
:1011800004F0DEF85849284604F0CCF87CBD000095
:10119000C80100206C5D0008945C00084449434588
:1011A0005461673A20202020202020202020202069
:1011B00025632563256325630D0A000053697A655D
:1011C0003A202020202020202020202025640D0AE5
:1011D0000000000056657273696F6E3A202020206F
:1011E0002020202025642E25640D0A0044617465AA
:1011F0003A202020202020202020202025730D00B0
:101200004D6F64656C3A2020202020202020202073
:1012100025730D0A0000000053657269616C3A2065
:10122000202020202020202025730D0A000000000F
:101230004D616E7566616374757265723A20202027
:1012400025730D0A0000000055524C3A2020202042
:10125000202020202020202025730D0A00000000DF
:101260004D616E75666163747572657249443A20AA
:10127000554E4C4F434B45440D0A00004D616E7571
:10128000666163747572657249443A204C4F434BF2
:1012900045440D0A000000004170705374726F6E77
:1012A000674E616D653A2020554E4C4F434B454487
:1012B0000D0A00004170705374726F6E674E616D5D
:1012C000653A20204C4F434B45440D0A0000000076
:1012D00044455649434520554E495449414C495A85
:1012E0004544210D0A000000245D000870B5074C3C
:1012F000074A2068074D0168914201D0A94204D0F5
:101300009821FEF7C0FF2068056070BDC80100206D
:10131000444D424344564F4470B50E4C002520685E
:101320004068002813D160680B4A016891420ED1D1
:101330000A498860FF200130C860084600F090FE2E
:10134000050004D100F0C6FE21680120486028464F
:1013500070BD0000C8010020444943451803002027
:10136000FFB599B00D4600241F4626466021684609
:10137000FEF789FF3B462A461CA1684603F0F0FFB2
:101380006846FEF78BFF18906A461BA1199803F078
:10139000C9FF27E0002C09D0002504E017A1199807
:1013A00003F0C0FF6D1C18988542F7D3002509E0B3
:1013B0001B9813A1025D68468019641C03F0D0FFDE
:1013C00086196D1C102F01D2384600E01020A8426B
:1013D000EED86A460CA1199803F0A4FF6021684674
:1013E000FEF751FFA742D5D81DB0F0BD25735B2590
:1013F000645D3A200000000025730000200000001A
:10140000253032780000000025730D0A000000002E
:1014100070B50546194903F085FF194C1023226861
:1014200018A128460832FFF79BFF226810231CA151
:1014300028463832FFF794FF226810231FA1284660
:101440001832FFF78DFF2268102323A12846483267
:10145000FFF786FFA268102326A128464032FFF737
:101460007FFF226810232AA128465832FFF778FF11
:101470002E49284603F056FF70BD0000DC5C0008D2
:10148000C80100202020202020202020202044658A
:1014900076696365526F6F744E616D650000000080
:1014A000202020202020446576696365436F6D709D
:1014B0006F756E644E616D65000000002020202075
:1014C0004D616E756661637475726572526F6F748B
:1014D0004E616D65000000004D616E75666163745C
:1014E00075726572436F6D706F756E644E616D6578
:1014F000000000002020202020202020202020414B
:1015000070705374726F6E674E616D6500000000FD
:101510002020202020202020202020204F706572B5
:1015200061746F724E616D6500000000245D0008FB
:10153000FEE7000010B5074900224A6106494B68E2
:101540004C1523434B604B68082423434B600260D7
:1015500010BD0000D4020020002002401A49886912
:10156000C2051A4803D5426908231A4342618A69B1
:10157000920503D5426904231A4342618A695205E0
:1015800003D5426902231A4342618A69120503D5D1
:10159000426910231A4342618A69920403D5426961
:1015A00001231A4342618A69920303D542692023C9
:1015B0001A4342618A69D20303D5426940231A4320
:1015C000426103488861704700200240D402002035
:1015D000002F030070B5054600F0D8FE06461C4CEF
:1015E0000AE0681C08D0002D04D000F0CFFE801B5C
:1015F000A84201D9032070BDA069C043C007F0D044
:10160000A069800701D50220A061A069C043C00580
:1016100017D5A069C043800513D5A069C043400514
:101620000FD5A069C04300050BD5A069C043800455
:1016300007D5A069C043800303D5A069C043C00398
:1016400003D4FFF78BFF012070BD002070BD0000A8
:101650000020024070B50D4D0DA1284603F080FE1C
:1016600004460D4800684068002807D1FF23281968
:1016700001330A4A0AA103F073FE0419281927232B
:101680000C4A0DA103F06CFE70BD0000680A00203A
:101690004044696365000000C80100200080000824
:1016A0002F3078253038782F30312A253033644276
:1016B00064000000808100082F3078253038782FB2
:1016C00030312A31323842672C253032642A3030AA
:1016D000344B6700FFB5054604462035287A81B0B3
:1016E00001280CD001262E72029904980027084385
:1016F0000399800709070843002832D102E002203D
:1017000005B0F0BD687A00282BD002206872607F97
:10171000012817D12046A168FFF7EDF8206801687D
:1017200078229143016020680168382211430160EA
:101730002046E168FFF7CEF8206801683143016078
:10174000022060770A98009002A90EC92046FFF790
:1017500048F8002801D00320D2E76E722F720020D3
:10176000CEE72F720120CBE7FFB5054683B01846C0
:10177000059A0843800712072C46104300262034A0
:10178000002805D1607A002802D0607A012803D0B1
:101790002672012007B0F0BD207A012809D001206F
:1017A00020720227009301916772687F012802D09E
:1017B00014E00220EEE72846A968FFF79CF82868A5
:1017C000016878229143016028680168382211433A
:1017D00001602846E968FFF77DF86F772846009B8F
:1017E000059A0199FFF748F826720020D2E7FFB565
:1017F000054604462035287A81B001280CD0012600
:101800002E7204990298002708430399800709075C
:101810000843002832D102E0022005B0F0BD687A0A
:1018200000282BD002206872607F012817D1204643
:10183000A168FFF760F82068016878229143016091
:10184000206801682022114301602046E168FFF70B
:1018500041F82068016831430160022060770A98EE
:10186000009002A90EC92046FEF7BBFF002801D058
:101870000320D2E76E722F720020CEE72F72012074
:10188000CBE7FFB5054683B00846059A18438007A5
:1018900012072C46104300262034002805D1607A18
:1018A000002802D0607A012803D02672012007B0F8
:1018B000F0BD207A012809D0012020720227009370
:1018C00001916772687F012802D00FE00220EEE7E5
:1018D0002846A968FFF70FF82868016820221143FD
:1018E00001602846E968FEF7F5FF6F772846009B00
:1018F000059A0199FEF7C0FF26720020D7E770B560
:10190000002814D00222014620310D464A720121DE
:10191000417700240483448301680A685208520016
:101920000A6000F02DF86C722C72002070BD01204E
:1019300070BD70472030407A7047704770B5040022
:101940000DD025462035687A0026002803D12E7256
:10195000204600F01FF820680168C90701D0012067
:1019600070BD0221697201680622914362681143C9
:10197000016026836683012068726077002070BD55
:101980000348016B01221206914301637047000076
:1019900000100240F8B5334C0546216B01200006CB
:1019A00001432163216A01432162216A814321624B
:1019B000002211461D2000F077FD1D2000F06AFD79
:1019C000216B012001432163216B01400091216AB9
:1019D00001432162206A40084000206223482249D6
:1019E000016000241021C4608160802102468E00C5
:1019F0000F011032C461C2C2490101620B21416072
:101A000028628562286A00F035F8286A00F05CFADE
:101A100000220121092000F047FD092000F03AFDD5
:101A2000124811493C3084602831C460016002468C
:101A30001032D0C203210903C46101620B2141604D
:101A40006862856200F016F808483C3000F03CFA05
:101A5000002211460A2000F027FD0A2000F01AFD9E
:101A6000F8BD00000010024008000240F00900200C
:101A700070470000F0B5002821D0014620318C4687
:101A8000497902291BD001680A68520852000A608D
:101A9000026800211160026851600268916002686A
:101AA000D160684C674D674E664F664A01681434D2
:101AB00028353C365037914203D101231DE00120E7
:101AC000F0BDA14201D1102317E0A94202D1FF23AA
:101AD000013312E0B14202D101231B030DE0B942F0
:101AE00002D101231B0408E0564B6433994202D112
:101AF00001231B0501E001231B06524908394B60F5
:101B00000168914201D102231BE0A14201D12023AF
:101B100017E0A94202D101235B0212E0B14202D1D7
:101B200001235B030DE0B94202D101235B0408E00D
:101B3000444B6433994202D101235B0501E0012348
:101B40005B06404908394B600168914201D1082386
:101B50001BE0A14201D1802317E0A94202D1012359
:101B6000DB0212E0B14202D10123DB030DE0B942F6
:101B700002D10123DB0408E0324B6433994202D1E5
:101B80000123DB0501E00123DB062E4908394B6008
:101B90000168914201D104231BE0A14201D14023FD
:101BA00017E0A94202D101239B0212E0B14202D107
:101BB00001239B030DE0B94202D101239B0408E0FD
:101BC000204B6433994202D101239B0501E001239C
:101BD0009B061C4908394B601A49036878319342C7
:101BE00003D18A6A1209120124E0A34202D18A6A4F
:101BF000F0231EE0AB4203D18A6A0F231B0218E0D8
:101C0000B34203D18A6A0F231B0312E0BB4203D104
:101C10008A6A0F231B040CE00A4A6432934203D100
:101C20008A6A0F231B0504E08B4204D18A6A0F23C2
:101C30001B069A438A6200218163604641710171EB
:101C40000846F0BD08000240F8B504469D4801680A
:101C50009C4A9C4E9B4F0832206813041C36303738
:101C6000904201D108221EE0B04201D180221AE048
:101C7000B84202D10122D20215E0924A4432904287
:101C800002D10122D2030EE08E4A5832904201D195
:101C90001A4608E08B4A6C32904202D10122D205EA
:101CA00001E00122D20625461140203500293BD013
:101CB0000168090738D5016808229143016081490C
:101CC00020680831884201D108201EE0B04201D1CD
:101CD00080201AE0B84202D10120C00215E0794903
:101CE0004431884202D10120C0030EE075495831C9
:101CF000884201D1184608E072496C31884202D10D
:101D00000120C00501E00120C0066E494860A06BBB
:101D100001210843A0630420687100202871616BD1
:101D2000002901D02046884766480168654A206836
:101D300008321315904201D104221EE0B04201D1B5
:101D400040221AE0B84201D11A4616E05D4A4432F8
:101D5000904202D1012292030FE05A4A5832904237
:101D600002D10122920408E0564A6C32904202D11C
:101D70000122920501E001229206114238D0016849
:101D8000490735D50168890603D4026804218A43CE
:101D900002604C4920680831884201D104201EE0CD
:101DA000B04201D140201AE0B84201D1184616E0F5
:101DB00044494431884202D1012080030FE0414967
:101DC0005831884202D10120800408E03D496C313D
:101DD000884202D10120800501E0012080063949B6
:101DE000486005206871216B002901D02046884792
:101DF00034480168334A206808325315904201D1B3
:101E000002221EE0B04201D120221AE0B84201D1E4
:101E10001A4616E02B4A4432904202D10122520364
:101E20000FE0284A5832904202D10122520408E0C1
:101E3000244A6C32904202D10122520501E0012273
:101E4000520611423CD00168890739D501688906DC
:101E500003D401680222914301601A4920680831C5
:101E6000884201D102201EE0B04201D120201AE0B8
:101E7000B84201D1184616E012494431884202D1D5
:101E8000012040030FE00F495831884202D1012060
:101E9000400408E00B496C31884202D10120400522
:101EA00001E00120400607494860A06BA0630120C3
:101EB000687100202871E16A002901D02046884716
:101EC000F8BD00000000024070B5002805D00346B0
:101ED00020335979002902D003E0012070BD002190
:101EE000197102215971046822683749C5680A408E
:101EF0008168466929430569354329438569294332
:101F0000C5692943056A2943114321602F492F4C94
:101F100002687831A24206D18A6A120912018A62E5
:101F20008A6A406849E0294C1434A24207D18A6A7F
:101F3000F024A2438A628A6A406800013DE0234C93
:101F40002834A24208D18A6A0F242402A2438A625A
:101F50008A6A4068000230E01C4C3C34A24208D13E
:101F60008A6A0F242403A2438A628A6A40680003B3
:101F700023E0164C5034A24208D18A6A0F2424046C
:101F8000A2438A628A6A8088000416E00F4C643497
:101F9000A24208D18A6A0F242405A2438A628A6A6F
:101FA0008088000509E08A4209D18A6A0F24240644
:101FB000A2438A628A6A0079000602438A6201208B
:101FC0005871002070BD00000FC0FFFF08000240E4
:101FD000F8B5044620300579012D1ED00125057184
:101FE0000226467120680768AF4307602046FEF767
:101FF000D7FD206801683143016020680168042230
:1020000011430160206801680822114301602068C3
:102010000168294301600020F8BD0220F8BD0000DE
:1020200010B500210748C9438162002282624162E3
:10203000426201620262C161C26100F011FA0020D5
:1020400010BD00000010024031B500F09FF90446B9
:1020500000F09CF90099001B8842F9D338BD0000BC
:1020600010B5002828D015494A6B80231A434A63CB
:1020700013494968C9071FD0124A0368124913401F
:102080000B60124B44681C404C60846814408C60A8
:10209000C2681A40CA600E4A036913400B61436963
:1020A00013404B618269C0690243086A0623984362
:1020B00002430A62002010BD012010BD0010024042
:1020C0000000014000FFFF00001C014000FF3F0036
:1020D000C0FF00000248416849084900416070475C
:1020E00000000140F8B51A4D0646287C0F4601282D
:1020F00007D0012028741748FFF76CFA010002D0BE
:1021000022E00220F8BD00206861401E386074683B
:1021100014E02046FFF70EFA0E48FFF75BFA01467F
:102120000D48426808239A434260426843159A4327
:102130004260002901D03C6006E08034B0687268DB
:10214000C0018018A042E4D8002028740846F8BDD9
:10215000D402002050C30000002002400348416820
:10216000022211434160002070470000002002401D
:10217000F8B50C4C1546207C0F46012808D00120EC
:1021800020740948FFF726FA0026002802D006E04E
:102190000220F8BD66613D600348FFF71BFA267414
:1021A000F8BD0000D402002050C300000948416877
:1021B00089070CD54168C90703D00749C1600749A1
:1021C000C160074901610749016100207047012092
:1021D0007047000000200240EFCDAB8905040302E8
:1021E000BFAE9D8C16151413F8B500230124A7E08B
:1021F00027469F403A4070D04D68022D01D0122DE5
:1022000014D1DD08AD002D1800952D6A5E07AC468F
:10221000F50E0F26AE46AE406546B543AC460E6998
:102220007546AE4065462E43009D2E624D68012DD9
:1022300005D0022D03D0112D01D0122D16D18568A5
:102240000326AC465D00AE46AE406546B543AC469F
:10225000CE687546AE4065462E43866046680D7969
:10226000BE43ED06ED0F9D403543456006685F00B7
:102270000325BD40AE46AE430D79B446AE07B60F5A
:10228000BE4065462E430660C6687546AE438D68FF
:10229000BD403543C5604D68ED0050D52B4D6E6B8C
:1022A00026436E639E082A4DB6007519AC46AD688C
:1022B0009E07360F0F27B740BD4305273F07B8429B
:1022C00001D100271AE0234FB84201D1012715E0C0
:1022D000214FB84202D1022710E030E01F4FB84230
:1022E00001D103270AE01E4FB84201D1042705E0BF
:1022F0001C4FB84201D1052700E00627B7402F4305
:102300006546AF60184D2E684F689643FF0300D5B1
:1023100016432E606E684F689643BF0300D5164380
:102320006E60AE684F689643FF0200D51643AE60FC
:10233000EE684F689643BF0200D51643EE605B1C03
:102340000A681546DD4000D052E7F8BD0010024093
:10235000000001400004005000080050000C005034
:1023600000100050001C00500004014000690840AB
:1023700000D00120704742694A4042617047002AFC
:1023800001D0816170478162704700000148006898
:10239000704700006C01002070B5040006D0204694
:1023A00060300546407A002802D004E0012070BD6C
:1023B000204601F033FA2420687220680168490839
:1023C00049000160204602F011F8606A002802D03E
:1023D000204601F079FF206841680922D20291432A
:1023E0004160206881682222914381602068816871
:1023F00008221143816020680168012211430160B5
:10240000204601F0C7FF70BD02480168491C016009
:10241000704700006C01002010B50648016840229A
:1024200011430160002000F007F800F01BF80020C5
:1024300010BD00000020024010B5044607487D2171
:10244000C9000068FDF754FE01F0CCF900222146D6
:10245000501E00F029F8002010BD000000010020EF
:102460007047000010B50A48416B012211434163D7
:1024700000221146501F00F017F800221146901E4E
:1024800000F012F800221146501E00F00DF810BDA9
:1024900000100240C106C90E0120884001490860B1
:1024A0007047000000E100E010B501F0A7FC10BD8E
:1024B00010B50C0606D54906490E1C2461430818C0
:1024C000283004E01C2461430818FF30093099B219
:1024D000002A06D001228272C180190C01810020DD
:1024E00010BD002282728180F9E71C224A43121833
:1024F00010B5FF30FF300230926BC06902F0F7FB7D
:1025000010BD1C224A43121810B5FF30FF32FF30B5
:10251000013202309269C06902F044FC10BD000033
:10252000F0B54B06CA095B0E002A04D01C225A43A0
:102530001218283204E01C224A431218FF320932D2
:102540000024947013700346C909FF335170E133BE
:10255000197A01291DD00121197251781B4E0029C9
:102560001B4C1178056816D089006F5A7F0605D577
:102570006F5A3740164E403637436F521178006815
:102580008A00815A114D3035294010256940202597
:1025900015E00220F0BD89006F5A7F0404D56F5A00
:1025A00037400C4E37436F52117800688A00815AC9
:1025B000084DF13D294001252D0369406D0069401A
:1025C0002143815200201872F0BD00008F8F00005F
:1025D0008080000080C00000F0B54D066D0E2E46D4
:1025E0001C246543CF092C18002F01D0283401E0AA
:1025F000FF3409342670C90961700146FF31E26079
:10260000E131E3708C46097A01290DD0012261463F
:102610000A72E2789A49002A08D0012A1FD0022AB9
:102620000ED0032A24D112E00220F0BD23780268E4
:102630009D00535B0B40FF33FF330233535317E0CE
:102640002278036892009D5A0D409D5210E0237835
:1026500002689B00D55A0D400321490206E0237809
:1026600002689B00D55A0D40012189026918D15298
:10267000237806689D00725B82490A4082490A43BA
:102680001A437253A27A002A59D02278076895001B
:102690007B5B7C4A7D4E134033437B53E38850265B
:1026A0005D0803686D00F65AF6182378DF000123F1
:1026B0009B02FB18F552238950265D0803686D00C4
:1026C000F65AF6182378DF004B11FB18F5526378A1
:1026D0000768002B23787BD09B00FD5A6D0404D53E
:1026E000FD5A6B4E15403543FD52237807689B0019
:1026F000FD5A6D0605D5FD5A634E154040363543EB
:10270000FD5225780368AD005E5B1640604A1643B3
:102710005E532278036895005A5B5A4E3036324039
:102720000A435A53026820788300D05A584CF13C2F
:1027300020400843D052002061460872F0BD627804
:10274000002AA28821D0530802685025AD5A5B00A8
:10275000AD182278D60001229202B218AB5222782C
:10276000036892009D5A6D0606D59D5A454E354028
:10277000454E403635439D52026820788300D05A3A
:10278000404C30342040202442E053080268502559
:10279000AD5A5B00AD182278D6003E4AB218AB5253
:1027A000026850239B5A3B4D9A182378AD1CDB00DE
:1027B0005B19D518E2683E2A0BD9D3021B0CD2064E
:1027C00001D15B1E9BB29A020123DB031A4307E08F
:1027D00020E0D3031B0CD20701D05B1C9BB29A02F2
:1027E0002A802278036892009D5A6D0405D59D5A6F
:1027F000244E3540264E35439D5202682078830092
:10280000D05A234CF13C2040012424036040640052
:1028100060408EE79B00FD5A6D0404D5FD5A1C4EA6
:1028200015403543FD52237807689B00FD5A6D061D
:1028300005D5FD5A144E154040363543FD522578D6
:102840000368AD005E5B16400F4A403216435E538C
:102850002278036895005A5B0D4EF13E3240012606
:1028600036037240760072400A435A530368207858
:102870008200985A034C30342040084398525AE75B
:102880008F8900008F8F0000808000008081000011
:1028900080C0000004040000F0B54906490E1C2465
:1028A0004C432418FF340934636122610022A26181
:1028B00003466270FF332170E133197A012908D091
:1028C000012119726569E1688D4204D96D1A65614B
:1028D00003E00220F0BD29466261A57A002D05D0F3
:1028E0006578002D19D0012D37D059E005685026A4
:1028F000765B76192578EF00324D7D1976193E29E1
:102900003ED9CD022D0CC90637D0A9020125ED0311
:10291000294300E0A902318042E005685026765B39
:1029200076192578EF00274D2D1F7D1976193E2940
:102930000AD9CD022D0CCF0601D16D1EADB2AD026C
:102940000127FF033D4306E0CD032D0CCF0701D047
:102950006D1CADB2AD02358009E005685026765B8E
:1029600076192578EF00174D2D1F7D197153657865
:10297000002DBBD0012D0AD012E06D1EADB2C4E710
:10298000CD032D0CC907C5D06D1CADB2C2E70568DB
:102990005026765B76192578EF000A4D7D19715324
:1029A000217800688C00015B074D294001252D032B
:1029B00069406D006940054D294301531A7200209A
:1029C000F0BD0000060400008FBF00008080000002
:1029D000F0B50246FF32E132137A012B0BD001240D
:1029E0004F06CB097F0E1472002B06D01C237B43AD
:1029F0001B18283306E00220F0BD1C234B431B1894
:102A0000FF3309339C701F70CE095E7001242403CC
:102A10001025114B002F0BD04906C90D002E10D0E8
:102A20000468605A0D4E304068401843605210E010
:102A3000006801880A4E31406140694019430180B5
:102A400007E00568685A064E303E30406040184343
:102A5000685200201072F0BD80800000BF8F00001F
:102A6000BFBF0000F0B506464806400E1C2141439A
:102A70008C19E3630021A2632164012128343746C5
:102A80006170FF372070E137387A012806D039723B
:102A9000E5686069A84203D9401B03E00220F0BD4D
:102AA000054600206061A07A002807D060780121E7
:102AB000C903002812D001282DD061E0ABB2A28852
:102AC0002169306801F069FB30685021095A091802
:102AD0002078C200454810180D5274E0306850222A
:102AE000125A12182078C3004048181812183E2DA8
:102AF00008D9E802000CEB0601D1401E80B280022A
:102B0000084306E0E803000CEB0701D0401C80B24C
:102B10008002108008E030685022125A1218207883
:102B2000C300324818181552304A6078121D002828
:102B300002D001281CD023E0306850231B5A1818FB
:102B40002378DB009A1882183E2D08D9E802000C81
:102B5000EB0601D1401E80B28002084306E0E80384
:102B6000000CE90701D0401C80B28002108007E011
:102B700030685021095A08182178C900891845522F
:102B8000217830688900415A490601D5228900E040
:102B9000E288ABB2216901F000FB6078144900289B
:102BA00002D0012807D00EE0207832688000135A46
:102BB0000B40104905E0207832688000135A0B4022
:102BC0000D490B431352207831688200885A084B14
:102BD000303318401023584020235840054B403BC9
:102BE0001843885200203872F0BD00000204000033
:102BF0008F8F0000C080000080C0000070B50446C8
:102C0000006840308088C00B02D0204601F018F9DF
:102C100020684030818849050AD58188334A1140AF
:102C20008180204600F0D6F80021204600F0FCF814
:102C3000206840308188490403D581882C4A11409E
:102C40008180206840308188890403D58188294AA1
:102C5000114081802068403081880425C904002902
:102C600010DA0188A9430180BD20216800024031AB
:102C70000880204600F0BAF82068403081881E4A5B
:102C800011408180206840308188090517D58188EE
:102C90001A4A11408180206840300188082211437F
:102CA000018020684030018829430180206840303D
:102CB0008088C043C00402D5204600F0F7F82068A1
:102CC00040308188890506D581880D4A1140818070
:102CD000204600F0A1F8206840308188C90503D55E
:102CE0008188084A1140818070BD0000FFFB000010
:102CF000FFBF0000FFDF0000FFEF0000FFF7000054
:102D0000FFFD0000FFFE0000F8B500270446002884
:102D100007D02646FF36E136707A0025002802D01B
:102D200005E00120F8BD3572204600F03BF8032095
:102D3000707201210BE01C207843021910462030EC
:102D400041720772C572556395637F1CD5636068D5
:102D5000B842F0D800200BE01C2242431219FF3287
:102D6000013255721072D57255619561401CD56162
:102D700062688242F0D8206840300180206840308C
:102D80000580206840308580206840300582BD2065
:102D900022680002403210802034257171720020B8
:102DA000F8BD000010B50068084988420DD10848F8
:102DB000816B0122D20511438163002211461F203D
:102DC000FFF772FB1F20FFF765FB10BD005C0040A2
:102DD0000010024010B5C41DFF34FA340121E0692F
:102DE00002F0A9F8E06902F06EF810BD10B50446D3
:102DF0008069002806D007480169062291430161D5
:102E000001F0E4F9FF34FF340234E06902F07EF8A7
:102E100010BD000000ED00E0FF3010B5FF300230C3
:102E2000C06902F079F810BD0246FF32E132137A30
:102E3000012B08D001231372002906D02030017124
:102E400000201072704702207047006880214030D7
:102E50008181F5E710B5872189000A580146FF31C5
:102E6000ED31104602F073F810BD00684030018B60
:102E70000122D20311430183002070470146FF3134
:102E8000E1310A7A012A0FD001220A720368403325
:102E90001A800368002240339A8000680323403080
:102EA00003800A72104670470220704710B504462E
:102EB000FF30FF300230C06902F093F8A0690028AB
:102EC00004D00348016906221143016110BD0000CE
:102ED00000ED00E0F8B504460078584D800660D556
:102EE000564E403E31680327A0693F0502463940EF
:102EF0003A40914208D08003800F032804D1306803
:102F0000800301D50120F8BDB06B012109070843FA
:102F1000B0634B480168821511430160FFF736FA30
:102F2000009005E0FFF732FA0099401A642823D890
:102F300043480068C005F5D5286903210904A26942
:102F400008400A4090422CD028692A698843012110
:102F5000C9040A432A612A698A432A6128618005D3
:102F60000FD5FFF713FA009008E0FFF70FFA00996A
:102F7000411A3448814201D90320F8BD28698005EF
:102F8000F3D5A0698103890F032950D03068B84375
:102F90003060296903200004A26981430240114383
:102FA00029612078C00705D0E86861688008800042
:102FB0000843E8602078800705D5E8680C2188433D
:102FC000A1680843E8602078400706D5E868032137
:102FD00089028843E1680843E8602078000706D545
:102FE000E86803210903884321690843E8602088D1
:102FF000C00506D5E86803210904884361690843D0
:10300000E8602078400606D5E868012189068843F3
:10301000E1690843E8602078000606D5E8680321E6
:1030200089048843216A0843E8600020F8BD3168BC
:103030003840B94301433160ABE700004010024023
:103040000070004088130000F8B5054653480E464E
:103050000068C007C00FB0420AD250480168490852
:103060004900314301600068C007C00FB0426FD112
:1030700028784B4C800705D5E068F0218843A96883
:103080000843E0602878C00752D06868022817D04B
:10309000002818D02168032818D04907002957DADA
:1030A000E168890889000143E160FFF76FF9696809
:1030B0000746022912D003291CD0002926D032E06D
:1030C00021688903EAE721688905E7E78901E5E7DF
:1030D000FFF75CF9C11B3348814222D8E068000742
:1030E000800F0228F4D123E0FFF750F9C11B2D48CF
:1030F000814216D8E0680007800F0328F4D117E05A
:10310000FFF744F9C11B274881420AD8E06800074D
:10311000800FF5D10CE0FFF739F9C11B214881423E
:1031200001D90320F8BDE0680007800F0128F2D123
:103130001A480168C907C90FB1420BD30168490891
:103140004900314301600068C007C00FB04201D0A0
:103150000120F8BD2878400706D5E068072109025C
:103160008843E9680843E0602878000707D5E068ED
:103170000721C90288432969C9000843E06000F0BB
:103180005FF8E168084A0906090F515CC840074921
:1031900008600020FFF750F90020F8BD0020024031
:1031A00000100240881300002C5B00080001002082
:1031B00008B50C48016882151143016001680A4A8C
:1031C0001140016001680122120411400091016860
:1031D0009200914301600021C160016104490348EC
:1031E000086008BD00100240D4FFF6FE68FF1F0013
:1031F0000001002001480068704700000001002025
:10320000044805490068C968044A4905490F515CEA
:10321000C84070470001002000100240455B0008D4
:10322000044805490068C968044A8904490F515C8B
:10323000C84070470001002000100240455B0008B4
:1032400010B51A4A5068D3680004410F0C2003409F
:10325000174805D0042B06D0082B0BD00C2B0BD015
:10326000491C884010BD1068C00601D5114810BD2A
:10327000114810BD114810BDD068D1688002104BB4
:10328000000F185C0902D368890F01242404491C2B
:10329000234204D11268D20603D5064A02E0074A47
:1032A00000E0054A5043FCF723FF10BD0010024028
:1032B0000080000000093D000024F40000127A00A4
:1032C0003C5B0008FEB504460078FA4DC0074DD0BF
:1032D000E8680007800F022807D0E8680007800F21
:1032E000032809D1E868C00306D5286880033DD5C6
:1032F0006068002875D039E00120626800048242CD
:1033000003D129680143296014E0052301211B042E
:1033100089049A422A6805D182432A602A680A43AE
:103320002A60EEE782432A602A68024000922868F9
:1033300088432860606800280CD0FFF727F806460D
:1033400004E0FFF723F8801B64287DD828688003F9
:10335000F7D50BE0FFF71AF8064604E0FFF716F87A
:10336000801B6428F1D828688003F7D42078800770
:1033700040D5E8681F270007800F3F02012807D0CB
:10338000E8680007800F032809D1E868C00306D465
:103390002868400717D5E068012822D113E0E168CA
:1033A0000920002916D02A6882430A432A60FEF7C2
:1033B000EDFF064604E0FEF7E9FF801B0228C4D8B3
:1033C00028684007F7D568682169B84309020843AF
:1033D00068600FE0296881432960FEF7D7FF064641
:1033E00005E09DE0FEF7D2FF801B0228ADD82868DB
:1033F0004007F7D42078B04FC00656D5E8680007DC
:10340000800F09D0E0690028286840D03843286040
:10341000FEF7BCFF064628E02868800502D5E06973
:1034200000287DD06868072149038843616A084302
:1034300068606868218C0002000A09060843686019
:10344000FFF7FEFEE96800E0E7E009069B4A090F86
:10345000515CC8409A4908600020FEF7EDFF24E067
:10346000FEF794FF801B0228A9D828688005F7D5AD
:103470006868072149038843616A0843686068688F
:10348000218C0002000A0906084368600DE0B84379
:103490002860FEF77BFF064604E0FEF777FF801BFF
:1034A00002288CD828688005F7D42078854E00073C
:1034B00024D560690028306910D0012108433061AB
:1034C000FEF764FF009005E0FEF760FF0099401AE8
:1034D00002288BD830698007F6D50FE040084000FD
:1034E0003061FEF753FF009005E0FEF74FFF0099B3
:1034F000401A0228B8D830698007F6D420788006B0
:1035000032D57148A1694314002919D0AA68012154
:103510000A43AA606A6B0A436A63016A194300E0BE
:10352000EDE00162FEF732FF009005E0FEF72EFFAE
:103530000099401A022870D8A8688007F6D513E0D1
:10354000A96849084900A960016A99430162FEF728
:103550001DFF009005E0FEF719FF0099401A0228B0
:103560005BD8A8688007F6D4207840076FD5002084
:1035700002900190A86BC00006D4A86B0121090736
:103580000843A8630120029050480068C00513D486
:103590004E4801683943016001200190FEF7F6FEB4
:1035A000009005E0FEF7F2FE0099401A642834D836
:1035B00046480068C005F5D5A068B84202D1306918
:1035C00038430CE001218902002803D005221202B1
:1035D00090420CD03069B843306130698843306123
:1035E000A068002815D0FEF7D1FE00900DE03069EC
:1035F000B8433061306908433061E0E7FEF7C6FE4A
:103600000099411A3248814272D830698005F5D557
:103610000EE0FEF7BBFE009007E069E0FEF7B6FEA5
:103620000099411A2A48814262D830698005F5D450
:103630000198002803D025480168B9430160029829
:10364000002804D0A96B012000078143A963A06A68
:10365000002852D0E9680907890F03294FD00126B5
:1036600036060228286805D0B0432860FEF78EFE93
:1036700004463FE0B0432860FEF788FE074604E0BA
:10368000FEF784FEC01B022832D828688001F7D4D8
:10369000616B206BEA680843E16AFD231B049A43CF
:1036A00011430843E860286830432860FEF76EFE47
:1036B000044614E000100240000100002C5B0008EA
:1036C0000001002040100240000001400070004056
:1036D00088130000FEF75AFE001B022808D828684D
:1036E0008001F7D509E0FEF751FE001B022801D941
:1036F0000320FEBD28688001F5D40020FEBD012016
:10370000FEBDF3B504460079002681B0012809D03A
:10371000012727716079012806D001260020207139
:103720003046FEBD0220FEBD02206071FEF72EFE77
:1037300005460CE0FEF72AFE411B7D20C0008142B9
:1037400005D904206071002020710320FEBD20688F
:103750004068C043C007EDD120688068A06002992E
:1037600008606771DAE770B5040009D02079012894
:1037700008D00125257160790026002804D007E0D3
:10378000012070BD022070BD2671204600F00CF8AB
:103790000220607120680168042211430160657194
:1037A0002671002070BD000000680549884205D1DF
:1037B0000448016B012212051143016370470000A8
:1037C0000050024000100240042204490428086905
:1037D00002D09043086170471043FBE700E000E02F
:1037E00070470000094910B5401E884201D90120E8
:1037F00010BD074C60610321081F00F0FFFA002094
:10380000A06107202061002010BD0000FFFFFF0025
:1038100000E000E010B5FFF7E3FF10BD00B5006861
:103820000C4985B0884213D10B48816B01225204A8
:103830001143816312210191042001210291009022
:10384000032104900391052069460007FEF7CCFC94
:1038500005B000BD0044004000100240FFB5064620
:1038600004466036707A81B00D46202844D1002D80
:103870001AD0002A18D0307A01283DD001203072A9
:103880000020E06621207072274640373A827A8213
:10389000788A0022401E788280212046049B00F016
:1038A000F5FE00281AD102E0012005B0F0BD01208C
:1038B000A1680003814202D12069002810D021684C
:1038C000287888626D1C788A0028E1D10022402186
:1038D0002046049B00F0DAFE002808D00320E4E72D
:1038E00028882168C005C00D8862AD1CEBE7202048
:1038F000707200203072D8E70220D6E710B502249B
:10390000FEF72CFC002806D004A207A10D4801F008
:1039100009FD204610BD00240BA2F6E75553424492
:103920005F4641494C0000004D454D5F49665F448C
:1039300065496E69745F46532829203D2025730D23
:103940000A00000074010020555342445F4F4B00B1
:103950007FB5044614480225221800201349802A06
:1039600003D203900868896808E00F4A104B803A38
:10397000A2189A420BD20390C8684969029100903C
:10398000019403A96846FEF7ADFB002808D009A3FF
:1039900022460BA1124801F0C5FC284604B070BDB8
:1039A000002510A3F4E70000807EFFF7505B0008BD
:1039B000007E0200555342445F4641494C000000DE
:1039C0004D454D5F49665F45726173655F4653289B
:1039D00030782530387829203D2025730D0A0000E5
:1039E00074010020555342445F4F4B0038B53223D9
:1039F000537000249470D47000920B46024603A1C9
:103A00000D4801F08FFC002038BD00004D454D5F92
:103A100049665F4765745374617475735F465328D4
:103A20003078253038782C2025642C2030782530CB
:103A30003878290D0A0000007401002010B5022416
:103A4000FEF7B4FB002806D004A207A10C4801F041
:103A500069FC204610BD00240AA2F6E755534244F3
:103A60005F4641494C0000004D454D5F49665F4946
:103A70006E69745F46532829203D2025730D0A0086
:103A800074010020555342445F4F4B00F8B5044683
:103A90000D480D4620181646802805D30A480B49C4
:103AA00080382018884205D221462846FCF7D2FBF0
:103AB00007A000E008A0009033462A46214609A04E
:103AC00001F03EFC0020F8BD807EFFF7007E020082
:103AD000555342445F4F4B00555342445F46414962
:103AE0004C0000004D454D5F49665F526561645F63
:103AF0004653283078253038782C203078253038D7
:103B0000782C20256429203D2025730D0A00000013
:103B1000F0B504468BB0022005906B481746081894
:103B20000D46FF287ED869480068406800287AD191
:103B3000674920688842FAD100206649099088695F
:103B4000096A07950891069009A906A8FEF7CAFA1E
:103B50000998401CF8D100263846303802900CE015
:103B6000A259A9190220FEF703FB00287ED1A05913
:103B7000A95988427AD10298361D8642F0D3204650
:103B800010220021D030FDF703F900280AD00020D0
:103B900000260490A0198030006D0290049800283F
:103BA00002D007E00120F3E702A94B48FFF7A9FD87
:103BB00000287CD14948029A006881190220D0313E
:103BC000FEF7D6FA002872D144480299006880199D
:103BD0008030006D88426AD1361D102EDAD320461F
:103BE00010220021E030FDF7D3F8002819D100267B
:103BF000A01980300490026E3848006881190220B4
:103C0000E031FEF7B5FA002851D10498016E33482F
:103C1000006880198030006E814248D1361D102E18
:103C2000E6D301E025E023E0204610220021F03019
:103C3000FDF7AEF8002836D10026A0198030049098
:103C4000026F2648006881190220F031FEF790FAD1
:103C500000282CD10498016F20480068801980301A
:103C6000006F814223D1361D102E00E01FE0E4D307
:103C700019E01B482818802805D3194819498038AD
:103C80002818884213D200260BE0A259A919022055
:103C9000FEF76EFA00280AD1A059A959884206D128
:103CA000361DBE42F1D3002005900FA000E010A009
:103CB00001902B46224611A100971B4801F032FBD0
:103CC00005980BB0F0BD00000080FFF7C801002090
:103CD00044494345505B000838030020CC010020D4
:103CE000807EFFF7007E0200555342445F4F4B0039
:103CF000555342445F4641494C0000004D454D5FDD
:103D000049665F57726974655F465328307825307D
:103D100038782C203078253038782C2025642920DC
:103D20003D2025730D0A00007401002070B5154870
:103D300086B0C16A01252943C162C16A2940059143
:103D4000C16A02242143C162C06A0F4E204005901F
:103D5000002208213046FEF712FB019508200025BD
:103D600000900295694630460395FEF73DFA102013
:103D700000906946019502943046FEF735FA06B088
:103D800070BD0000001002400004005010B50C4847
:103D90000A490160E1214902416000218160C1605E
:103DA00001618161C1610822016242614162FEF7E5
:103DB000F3FA002800D0FEE710BD000000440040E8
:103DC0004403002010B5FDF745FC002207490848D0
:103DD00000F06BFF0749064801F028F9064904483E
:103DE00000F0D6FD024801F073F910BD94010020E7
:103DF000680C002008010020780100208307FF22C2
:103E0000DB0E9A408907090E994000280BDA00075B
:103E1000000F0838830808489B001818C3699343AB
:103E20000B43C3617047830804489B001B18186844
:103E3000904308431860704700ED00E000E400E0A4
:103E4000F0B585B0044600206946888020462030C1
:103E5000029079E199890F073F0F24D0BE00815B62
:103E60009980998809046FD5815BBF4A11408153BD
:103E70001C2078430519FF350935A87A00282068E9
:103E80007DD029788A00825A520479D55022125A5C
:103E9000CB00B64912185918515A8905890D00915D
:103EA0006FD0EA88C0E09989C9062AD40188B04A4F
:103EB0001140018020685021095A254628350918EB
:103EC0002878C200A9481018085A8005800D20647F
:103ED000A16B0818A06300212046FEF706FB02989C
:103EE00000790028B5D068690028B2D1029800791D
:103EF00080210843216840318881029800210171A6
:103F000022E12546FF350388093569468B8089887B
:103F100009051AD5118A09182878C2009348001D8E
:103F20001018085A294683059B0DAB61AA88E43115
:103F3000206800F023F9206801888B4A1140018035
:103F40002046FEF787FFFFE095E06946898809046F
:103F5000D6D50188844A1140018020685021095A31
:103F6000824E08182978361DC9008919405A8305E0
:103F70009B0DAB610CD0AA882969206802E033E070
:103F800045E055E000F0FAF8A96928694018286171
:103F900000212046FEF7B5FA20685021095A08187A
:103FA0008119E8683E280AD9C202120CC00601D164
:103FB000521E92B290020122D203104306E0C203C5
:103FC000120CC00701D0521C92B2900208802168E6
:103FD0000888684A104001221203504052005040A5
:103FE000654A10430880AFE05021095A0A18297821
:103FF000CB005E49091D5918515A8905890D009158
:1040000021D0AA882969009B00F0B8F81BE0502253
:10401000CB00125A55491218091D5918515A8905D1
:10402000890D009104D02A892969009B00F0A6F827
:10403000287821688200885A4D4B803318404E4BB7
:10404000403318438852A96900980818A861296963
:1040500000980A182A616B69002B03D0E968009860
:10406000814204D929782046FEF74BFA03E02978EB
:104070002046FEF711FC68468088000664D51C20A7
:10408000474320683D19825B39490A4082532835ED
:10409000A87A002812D02878216882008A5A52060D
:1040A0001FD55022525A5118C20030481018085AD1
:1040B00083059B0DAB6125D0EA881FE02068502165
:1040C000095A09182878C20028481018085A830588
:1040D0009B0DAB6121D0AA882969206800F05DF8AA
:1040E0001BE05022525A5218C1002048001D0818E7
:1040F000105A83059B0DAB6104D02A892969206879
:1041000000F04BF8297820688900425A184B803318
:104110001A40184BF1331A4342522068024640308D
:10412000018A88182978114AC9008918405A8005DF
:10413000800DA86129690A182A616B692978002B0A
:1041400020460DD0FEF78EFC206802464032918852
:104150006B469981090400D57CE6002005B0F0BDCE
:10416000FEF7C3F9F0E700008F0F00000204000023
:104170000F8F00008FBF0000808000001018012208
:104180005B1C92025B088018002B05D002880A8015
:10419000801C891C5B1EF9D17047101801225B1C22
:1041A000920210B55B088018002B08D04A780C7872
:1041B000120222430280801C891C5B1EF6D110BDB6
:1041C00010B5FEF721F9FFF725FB10BD10B5274804
:1041D0009CB0816B0204114381632548016803226E
:1041E000D2029143C214891801602220009001205C
:1041F0000690039002200A9040040C9000011021C8
:1042000000240D9004910B946846FFF75BF800289A
:1042100000D0FEE70F200E9003200F901094119411
:10422000012112940EA8FEF70FFF002800D0FEE730
:10423000422013900120159480061A9013A8FEF7CF
:1042400049FE002800D0FEE7FEF7D4FF7D21C9001B
:10425000FBF74EFFFFF7C6FA0420FFF7B5FA00227E
:104260001146501EFEF720F91CB010BD0010024090
:104270000070004010480168821511430160C16858
:104280000E4A1140C16001680D4A11400160816809
:10429000490849008160016801229204914301604C
:1042A000C168FD2212049143C160002101610549EA
:1042B000C003886070470000001002400C40FF8877
:1042C000F6FFF6FE00ED00E010B5818CC90707D0BF
:1042D00001684A6801235B049A43836A1A434A606F
:1042E000818C890707D501684A6801231B049A431A
:1042F000C36A1A434A60818C490707D501684A6836
:1043000001239B049A43036B1A434A60818C09077B
:1043100007D501684A680123DB039A43436B1A43BC
:104320004A60818CC90607D50268916801231B0386
:104330009943836B19439160818C890607D5016885
:104340008A6801235B039A43C36B1A438A60818C9A
:10435000490612D503685A6801210905046C8A438D
:1043600022435A60026C8A4207D1026851680323D3
:104370005B059943436C19435160818C090607D54D
:1043800001684A680123DB04806C9A4302434A6057
:1043900010BD000070B5044600680068124D0007AB
:1043A00008D501212B4600224905204600F06EF970
:1043B00000280CD12068006840070AD501212B464F
:1043C00000228905204600F061F9002801D0032071
:1043D00070BD0021204660300172E16620214172EB
:1043E0008172002070BD0000F0550000F8B5044651
:1043F0002669A368E7693343666900203E43256860
:104400003343964A2E680146954F3E401E432E6028
:1044100025686B6803263603B343E66833436B6055
:104420002568A369954201D0266A3343AE680B27FD
:104430003F02BE431E43AE608A4E25688A4BB5429A
:104440000CD1DB689B079B0F06D0012B42D0022BBF
:104450003ED0032B20D11EE001201DE0834EB5424B
:104460000AD1DB680C26334016D0042B32D0082B3F
:104470002ED00C2B10D10EE095420DD1DE68032317
:104480009B021E4008D001239B02F61A22D0F61A86
:104490001ED09E4200D10820734F403F95427DD1EF
:1044A0000026002818D0022832D0042858D0082826
:1044B00055D164682046FCF745F807460091F1079E
:1044C000600808437108FCF74BF80022684B3DE098
:1044D0000220E1E70420DFE767683846FCF732F89E
:1044E00005460091F107780808437108FCF738F891
:1044F00006460F46FEF784FEFCF724F80822FCF778
:104500000BF832463B46FBF7DDFE2A46009B42E0B5
:1045100038686468C00620460CD5FCF713F80746D7
:104520000091F107600808437108FCF719F80022B0
:10453000504B0BE0FCF706F807460091F1076008C6
:1045400008437108FCF70CF800224B4BFBF7BAFE4E
:104550003A46009BFBF768FFFCF710F8E860F8BDEF
:1045600067683846FBF7EEFF05460091F1077808CB
:1045700008437108FBF7F4FF06460F46FEF760FE9E
:10458000FBF7E0FF0822FBF7C7FF32463B46FBF78D
:1045900099FE2A46009BFBF747FF00E004E0FBF78B
:1045A000EDFF2168C860F8BD0122E369D2039342A0
:1045B0002CD1030000F0FFFE0906090C191F191980
:1045C00019251900FEF71CFE17E0FEF729FE14E07E
:1045D00038686168C00602D54808284A01E0284AC0
:1045E00048088018FBF784FD81B20A091201080708
:1045F000400F1043D5E7FEF723FE616840004A08EC
:10460000EFE76168012248081204EAE7030000F0BE
:10461000D2FE09070A0D061A060606220600C2E7A0
:10462000FEF7EEFD11E0FEF7FBFD0EE03868616875
:10463000C00602D54808134A01E0134A480880180A
:10464000FBF756FD8AE7FEF7FBFD61684A08801814
:10465000FBF74EFDA5E761684808F0E70048004019
:10466000F369FFEF00380140401002400044004071
:10467000000060418084CE418084EE4100127A00C7
:104680000048E80100093D000024F400F8B51E468A
:1046900015460F460446FDF779FE29462546603546
:1046A000009000291AD043E0701C17D0002E05D0CE
:1046B000FDF76CFE0099401AB0420FD920680268DD
:1046C00080218A43026021680A68202082430A60B0
:1046D00021680B68C20093430B601EE02068C1692B
:1046E00038468843E0D128E0701C21D0002E05D048
:1046F000FDF74CFE0099401AB04219D920680168B4
:1047000080229143016021680A68202082430A6068
:1047100021680A68C3009A430A6021688A685208BF
:1047200052008A606872A872002028720320F8BDC7
:104730002068C16938468843D6D00020F8BD10B53E
:1047400085229200125852689047002010BD1346EF
:1047500010B50A46002100F0ADFB002010BD134645
:1047600010B50A46002100F044FC002010BD10B531
:104770000446802100F01AFC0021204600F016FCBF
:1047800010BD10B5FF230324F5331C50C31DF933AE
:104790009A60DA6013460A46002100F08BFB002085
:1047A00010BD10B5FF210522F5310A5000231A462D
:1047B000194600F07FFB002010BD10B5FF23022436
:1047C000F5331C5082611346C2610A46002100F095
:1047D00010FC002010BD10B5FF210422F5310A5055
:1047E00000231A46194600F004FC002010BD0020EA
:1047F00070470020704770B5C41DFF34FA340121A2
:10480000A06989024018002585600221C5600170F9
:1048100045704171A069002806D0E0698068804732
:10482000A06900F072FDA561002070BD00207047F6
:104830007CB5C31DFF330246FA3301219869890212
:1048400044182178042902D0072952D054E0A168E5
:10485000002500290ED0012933D9284A8902891858
:104860002269DB6989181B69E2689847002828D00B
:1048700002207CBD0178002904D0212906D04129DD
:1048800013D015E0E06801281BD011E0E16805298C
:104890000ED18278417812028918C2780079120408
:1048A00089180006081820610BE0E168052911D07D
:1048B0006846E56005700121C18069461046FFF732
:1048C00056FFE5600320A5602070A570E570257196
:1048D000607111E08278417812028918C2780079FB
:1048E00012048918000608182061D969C968884728
:1048F000BCE71046FCF7BCF800207CBD00F8FFFFC9
:104900001B21018000487047440100200A210180DA
:10491000004870476001002010B5062909D8FF3013
:10492000FF300230C0690449006800F09CF9024879
:1049300010BD002010BD0000D401002010B50446B9
:104940008320C00000F0E2FCFF34FF340234A06199
:10495000002817D001210022890241184A61012054
:104960008A60C006CA600861CA71022008704A7075
:104970008A70CA700A7148718A71E069406880471C
:10498000002800D0022010BD002070470020704792
:10499000002903D0FF30FF300230C1610020704792
:1049A00000207047F8B54323DB001C5800270B7824
:1049B00060263340374E3A463D4643D0202B62D1E5
:1049C0004F7800223B0000F0F6FC073A05080B0E7A
:1049D00020235B00FBF7D0FF55E0FCF779F852E0AD
:1049E000FBF7F8FF4FE0A01901780A2909D00A2146
:1049F00001700E2343708270C27002714171827126
:104A000041E0022101704270F5E70122A1192BE07B
:104A1000A0190178022907D0032905D0052903D060
:104A2000062901D009292ED102210170427082701D
:104A3000C2700271417182718260C26023E0FBF733
:104A40006BFF20E04B78062B04D00A2B0FD00B2BEA
:104A500016D111E04B881B0A212B04D1CA880E4FB6
:104A6000092A00D909223946FFF7A7FE0BE00949B8
:104A7000012214316118F7E74A8813061B0E04D08F
:104A8000FFF775FE02252846F8BDD0B2A11948618E
:104A9000F9E70000000400005601002010B50A46A6
:104AA000024903A000F0DFF8004810BD8C0E002082
:104AB00044465520436F6E666967000012200880E7
:104AC00000487047B401002010B50A46024903A00F
:104AD00000F0C9F8004810BD8C0E00204446552057
:104AE000496E746572666163650000000420088089
:104AF00000487047B001002010B50A46024903A0E3
:104B000000F0B1F8004810BD8C0E002053544D69E0
:104B100063726F656C656374726F6E6963730000B6
:104B200010B50A46024903A000F09DF8004810BDE8
:104B30008C0E002053544D333220446F776E4C6FEF
:104B40006164204669726D77617265205570646199
:104B50007465000010B50A46024903A000F083F80E
:104B6000004810BD8C0E00203030303030303030F6
:104B70003030314100000000F8B50D460446498848
:104B8000FF300A0AFF300230130000F014FC085016
:104B90000509165050454D500069237C026817E006
:104BA000217C02264069002905D0C16A68468847F1
:104BB0000146467047E0816AF8E7CAB2130000F088
:104BC000FAFB06040B0F161A1E240069237C4268A8
:104BD00069461846904716E00069227C836802E027
:104BE0000069227CC3686946104698470BE000695B
:104BF000227C0369F7E70069227C4369F3E70069D7
:104C0000227C8369EFE701461DE04069C9B2836BEE
:104C10006A4620469847F6E7217C002907D140697B
:104C2000416B68468847EEE7217C002904D029467D
:104C30002046FFF79CFDF8BD4069016B6846884738
:104C4000072201464270684600880028F3D0EA88AF
:104C5000002AF0D0824200D90246684602802046EF
:104C6000FFF7ABFDF8BD70B5002300281CD004464B
:104C7000002502E06D1CEDB2641C2678002EF9D1EF
:104C80006C00A41C1480CC5403225B1CCA54002466
:104C90005B1C06E0CA545B1CDAB28C54521CD3B2C3
:104CA000401C0278002AF5D170BD10B5002813D041
:104CB000C31DFF33FA335C69002C01D000245C6112
:104CC000002900D01961FF210123FD310B5402702E
:104CD00000F0A2F8002010BD022010BDFF3010B57A
:104CE000FF300230006AFDF71BFC002010BDFEB54E
:104CF0000446FF30E51DE130FF35FA3513460190DB
:104D0000002908D068694269002A49D00198007FCB
:104D1000032843D044E02646FF3681362046716F93
:104D20001430022934D1C26881680092914207D9B7
:104D3000891A81608AB219462046FFF710FD13E0F8
:104D4000406811460746FBF7D3F9002913D10098B4
:104D5000874210D3B06F87420DD200221146204601
:104D6000FFF7FDFC0020B06700231A4619462046D5
:104D700000F0A0F80CE06869C168002905D001982E
:104D8000007F032801D1204688472046FFF709FD10
:104D90002878012804D10020287001E0204690479F
:104DA0000020FEBD70B50546FF35E1352B462033AA
:104DB00016460446002907D058698269002A29D07E
:104DC000287F032824D025E0FF21F531E01D095973
:104DD000FD3003291ED18268C1688A420BD9511A5D
:104DE0008160C068814200D301468AB231462046C4
:104DF000FFF7ADFC0EE058690169002904D0287F57
:104E0000032801D1204688472046FFF7E4FC01E053
:104E100020469047002070BD10B51449C41DC861DC
:104E2000FF341349FA341348216208600222082033
:104E30008A60486003200A61C86000208861C861F8
:104E40000846FDF761FF002801D0FCF771FB002246
:104E500018231146206AFDF72BFB582300228021DE
:104E6000206AFDF725FB002010BD0000D0090020BE
:104E7000D0070020005C0040FF30CA09FF3049061F
:104E80000230490E1C23006A59430818002A01D039
:104E9000203001E0FF300130807A704710B5FF30DC
:104EA0001C46FF3002301346006A2246FDF794FB91
:104EB000002010BDFF3010B5FF300230006AFDF752
:104EC000EBFC002010BD70B50022044640231146C3
:104ED000FFF7E4FF4025FF20113005512B4600224B
:104EE00080212046FFF7DAFFFF200121FD302562F7
:104EF0000155E01DFF30FA308169002904D0406976
:104F00002179426820469047002070BDFF30E13093
:104F1000417F01770020704710B5FF21FD31095C0A
:104F2000032906D1852189000958C969002900D0C3
:104F30008847002010BD017400207047FF3010B575
:104F4000FF300230006AFDF76FFF002010BD70B522
:104F500004464120C0002018054600F053F82146C1
:104F6000FF3181310122084680304A67C2898A6751
:104F7000007AC106C90E0AD001290DD0022910D02D
:104F8000C109C901204600F011F8002070BD294672
:104F9000204600F0A2F8F8E72946204600F089F9FB
:104FA000F3E72946204600F00FF9EEE7FF3010B591
:104FB000FF300230006AFDF70BFD002010BDFF300E
:104FC00010B5FF300230006AFDF74FFF002010BD22
:104FD000FF3010B5FF300230006AFDF74FFF0020B0
:104FE00010BDFF30E130017F4177042101770020BF
:104FF0007047FF3010B5FF300230006AFDF732FD18
:10500000002010BD0A7802704A784270CB788A7806
:105010001B02D21842804B790A791B02D218828077
:105020008A79C97909025118C18070470246002067
:10503000002904D0FF32FF32023251617047022052
:10504000704710B58522920012580224002A04D01D
:1050500012689047002800D10024204610BD0000AF
:1050600070B50E468978194D04462970012904D976
:1050700031462046FFF77BFB70BD2046FF30E13014
:10508000027F022A15D0032AF2D1002917D06068C6
:1050900088420AD0C1B22046FFF751FB29786160EF
:1050A0002046FFF7CEFF0228E2D02046FFF793FB11
:1050B00070BD0029F9D0032261600277F0E7022277
:1050C000027720466160FFF73AFBEEE7040100201B
:1050D00010B5FFF774FF002010BDF8B50022009254
:1050E000C61DFF364C781746FA3632460125203A5F
:1050F000230000F060F90A3C564150410906412B5B
:105100002841FFF739FD5DE004468888002818D162
:10511000C888002815D1887817464606107F760E75
:1051200003280ED0BE7731462046FFF707FF204602
:10513000FFF751FB002E02D00220387742E03D7786
:1051400040E0204618E0FFF78BFF3BE0CB88012BC7
:1051500012D1127F022A02D0032A0DD104E00122CB
:1051600001460831876013E00122011D10E0127F23
:10517000022A04D0032A02D0FFF7F9FA22E0C56020
:105180007168002901D00321C160014602220C315F
:10519000FFF713FB16E004464888012812D175601A
:1051A00009E00446107F022801D00328C9D14888AD
:1051B000012807D1776070698268204690472046B1
:1051C000FFF709FB0098F8BDF8B504460D462878AE
:1051D000E61D4006FF3600270979800FFA360128C0
:1051E00009D06A7830462038002A38D0012A1ED0EB
:1051F000032A3DD106E0706929468268204690471F
:105200000020F8BD007F022817D003282CD1688821
:10521000002806D1002904D0802902D02046FFF7BB
:10522000C5FE7069294682682046904713E0007FDA
:10523000022802D0032817D104E0002918D08029C1
:105240001AD115E06888002812D1480603D02046FC
:10525000FFF744FDE5E72046FFF7BDFA08E0007FD1
:10526000022807D003280BD029462046FFF77FFAF3
:105270003846F8BD4806FBD02046FFF797FEF7E713
:10528000C80904D04806400D0519143504E0480645
:10529000400D0519FF3505352046FFF7EDFD0028C7
:1052A00000D001202860022229462046FFF785FA17
:1052B000DEE770B50446FF30E130007F0D4603287D
:1052C0000FD1287901280CD88520800000598268E8
:1052D00020469047E888002806D12046FFF77BFA51
:1052E00002E02046FFF743FA002070BD10B50446E7
:1052F0000179FF30FF300230406942682046904714
:105300002046FFF765FE002010BD7047004870473B
:10531000B403002010B50248FDF770FC10BD00007A
:10532000D00700200FB410B5024604A9034B039820
:1053300000F05EF810BC08BC04B0184771580008B3
:105340000FB410B503A9044B044A029800F050F8BA
:1053500010BC08BC04B01847715800087001002048
:105360000FB410B504A9074B02AA039800F040F847
:10537000044602A9002000F075FA204610BC08BCC3
:1053800004B01847655800082021020C01D01021F4
:105390001046020A01D010460839020901D0104611
:1053A000091F820801D01046891E420801D0881EBC
:1053B0007047081A704730B47446641E2578641C20
:1053C000AB4200D21D46635D5B00E31830BC18475A
:1053D00002E008C8121F08C1002AFAD170477047BE
:1053E000002001E001C1121F002AFBD1704700001C
:1053F000FFB591B00F460546002606E025280AD0E5
:10540000149A139990476D1C761C28780028F5D1C2
:10541000304615B0F0BD002400940121F34A0294F7
:1054200000E004436D1C2B780846203B9840104256
:10543000F7D128782A280ED0022128780246303A5F
:10544000092A15D8009A0A235A43303A80180C4387
:105450006D1C0090F1E701CF0090002805DA0120D3
:1054600040030443009840420090022004436D1C16
:1054700028782E2815D10420044368786D1C2A282A
:105480000AD101CF6D1C02900BE002990A22514310
:10549000303940186D1C02902878014630390929AE
:1054A000F3D928786C2810D006DC4C281AD068284C
:1054B0000ED06A2817D104E0742813D07A2812D1AC
:1054C00010E00120400504430CE00121090501E042
:1054D000032109050C436978814203D101200005AD
:1054E00024186D1C6D1C287803906E281ED00CDCCF
:1054F000632831D004DC00288AD0582811D1B2E0CA
:1055000064287BD069280CD178E073282DD004DC86
:105510006F2870D0702804D1A7E075286CD0782847
:105520006BD0149A13999047761C62E06002400F8A
:10553000022807D003280AD0042838680AD0066059
:105540003F1D56E03868F11706604160F8E738689B
:105550000680F5E70670F3E738786946087400209E
:10556000487404A80390012003E0386803900020E9
:10557000C0433F1D61070FD5002101E00199491C7F
:10558000029A0191914213DA8142F7DB019A039961
:10559000895C0029F2D10BE0002101E00199491C4E
:1055A00001918142FADB019A0399895C0029F5D1C6
:1055B00001990098139A401A00902146149B00F01C
:1055C0003BF901998019461807E003980399007880
:1055D000491C0391149A139990470198401E019019
:1055E000401CF2D12146149B139A009800F014F944
:1055F00086196D1C09E741E033E034E00A20002100
:10560000049005916002410F022905D001CFC21715
:105610009446032905D007E0FF1DFF08FF0003CFD4
:1056200006E000B2C2179446042902D140B2C11765
:105630008C4600226146944506DA0A460021404223
:1056400091418C462D2102E0210504D52B216A468B
:105650001176012103E0E10701D02021F7E7019154
:1056600054E00A200BE0102009E0102004900021F3
:105670000420044308200591029003E00820002143
:10568000059104906002410F022905D001CF00224C
:105690009446032906D006E0FF1DFF08FF0003CF54
:1056A0008C4603E080B2042900D1C0B200210191F0
:1056B00021072BD50399702906D0049A1021059B48
:1056C0004A401A4305D00EE040216A461176012176
:1056D00008E06146014306D030216A4611760399FD
:1056E000517602210191049A0821059B4A401A43F0
:1056F0000CD16146014301D1610707D530216A46CB
:105700001176012101910299491E029103995829AC
:1057100004D037A103910FA90F910DE039A1F9E74A
:105720006146059B049AFAF75BFF039B8C469B5CE2
:105730000F9A521E0F92137061460143F0D10F98D9
:1057400007A9081A20300390600704D5012000043F
:105750008443029801E0012002900399884201DD10
:10576000401A00E0002041180290019809180098A2
:10577000401A0090E00306D42146149B139A009827
:1057800000F05AF886190020049008E006A9085C89
:10579000149A139990470498401C761C0490019920
:1057A0008842F3DBE0030CD52146149B139A009842
:1057B00000F042F8861904E0149A302013999047BB
:1057C000761C0299481E02900029F5DC08E00F982B
:1057D0000F990078491C0F91149A13999047761CE1
:1057E0000399481E03900029F1DCFBE6092801001B
:1057F0003031323334353637383961626364656647
:105800000000000030313233343536373839414208
:105810004344454600000000F8B5044600251E46F6
:105820001746880404D405E039462020B0476D1C93
:10583000641EF9D52846F8BDFFB50446002581B0A1
:105840001E46C80301D5302700E02027880404D570
:1058500005E038460399B0476D1C641EF9D528460B
:1058600005B0F0BD0A68531C0B6010707047000053
:1058700013B509680020C04301290BD0032909D1C1
:1058800004462346012269460348FDF7E7FF022844
:10589000F7D000981CBD0000440300200026FCF750
:1058A000BBFDFEF793FCFEF741FA51494F480860F3
:1058B0000846FDF758FF002800D0FEE7FEF766FA1D
:1058C000FBF714FD4B48FBF7DDFBFBF76FFA0028F5
:1058D00004D049A14748FFF725FDFEE74548FBF7FF
:1058E000EFFA4448FBF794FDFBF76AF9002802D071
:1058F000012648A200E049A24BA13E48FFF712FD55
:10590000FBF70AFD002804D04DA13A48FFF70AFD35
:10591000FEE755A13748FFF705FD5D4D0024002E39
:1059200023D110212846FCF721FD01281DD059491B
:105930003048FFF7F7FC58A12E48FFF7F3FCFDF7BE
:1059400037FCFCF76DFB5B485949816000205A4ADF
:105950004F231B028518401C2C709842FAD308680C
:1059600080F3088848688047FEE754492148FFF7DC
:10597000D9FC53A11F48FFF7D5FC5D4801688C6630
:10598000CC660C674C6708468C67CC6778308460BF
:10599000C46080318C60CC600C614C6155A11548AD
:1059A000FFF7C0FCFEF70EFA59A11248FFF7BAFC48
:1059B0005D4C08212846FCF7DEFC6420FCF744FB24
:1059C00008212846FCF7D7FC6420FCF73DFB0821A2
:1059D0002846FCF7D0FC6420FCF736FB082128465B
:1059E000FCF7C9FC2046FCF72FFBE2E70050024021
:1059F00038030020740100204469636544657269BE
:105A00007665446174612829206661696C65642E3D
:105A10000D0A0000494E56414C4944004155544836
:105A20004F52495A45440000417070207061796CB2
:105A30006F6164206973202A25732A0D0A00000013
:105A4000446963654C6F636B4F757450657273691D
:105A500073746564446174612829206661696C65AA
:105A6000642E0D0A0000000050657273697374653E
:105A7000642064657669636520646174612069737C
:105A8000202A534543555245442A0D0A0000000080
:105A900000040050BC5B00084465496E697469618C
:105AA0006C697A696E672048414C0D0A000000005D
:105AB0000082000800ED00E000010020045C000806
:105AC0005363727562696E67206465726976656496
:105AD000206964656E7469746965732066726F6DA0
